:020000003028A6
:100008007E14803120007F08F7008B1A0B1D0E2804
:10001800A4202B280B1F18282100111F18282000A6
:10002800111F1828EF202B280B1F22282100911CB4
:1000380022282000911C2228B2202B280B1F2B28B5
:100048002100111C2B282000111C2B289420770834
:100058002000FF007E10090031287E10200034287F
:10006800C92020008C1D4028F930FB000032FB0B12
:100078003A280032003235280930FC001C30FB00D9
:10008800FB0B4428FC0B44280000302830302000AB
:10009800980099010B309700DC3096001708F5009E
:1000A8001608F400111021001114F330F800003084
:1000B800F900D720EC20080021001508C0391738AE
:1000C80095000C30200095000C30FA007A08F600F4
:1000D8000B118B16F430F8000030F900DC20080012
:1000E8007B3020009C00F3309B009A019110210086
:1000F8009114F230F8000030F900D120E92008000E
:1001080022008C011C3021008C00143023008C004C
:10011800103024008C002100951322009D01080056
:10012800200011107508970074089600720873046F
:100138000319080073088A0072080A008031080051
:100148000B11760820009500700871040319080047
:1001580071088A0070080A00803108002000911098
:10016800200821040319080021088A0020080A0031
:1001780080310800013021009D00E0309E004030B1
:100188009F009B019C01111708008420E520E120B5
:10019800BE2074204A206020080079082000A100B1
:1001A8007808A00008007908F3007808F200080031
:1001B8007908F1007808F00008001630210097004F
:1001C8000800383021009900080020001C1508009C
:1001D8002000181408002000111308000800080067
:0201E80008000D
:020000040001F9
:04000E00A4FFFFDF6D
:00000001FF
