:020000003028A6
:100008007E14803120007F08F0008B1A0B1D0E280B
:100018009B202B280B1F18282100111F18282000AF
:10002800111F182863212B280B1F22282100911C3F
:1000380022282000911C22282E212B280B1F2B2838
:100048002100111C2B282000111C2B2813217008BB
:100058002000FF007E10090031285A21F9005B2199
:10006800FA005C21FB00FC017E1020003B283821AF
:100078008B170B1722008C100C108C120A302000E2
:10008800A6002608F8000130F802780A0319562855
:1000980009302000A6001C30890B5028A60B5028D8
:1000A800000047280230CA2001307202E5300319E7
:1000B80071020318632822000C1463009A28FC01BB
:1000C80020008C1D6C287B08031D642863006428AD
:1000D80009302000A6001C30890B7028A60B702858
:1000E800000020008C1963288B12FC01FC0A7A0896
:1000F800803A2000A60080302602031D85280130A2
:100108007902031C8B2822008C148C167B28220071
:100118008C108C120230CA2001307202E5300319AB
:1001280071020318992822000C14630030280B115F
:100138007708200095007B08031DA628FB012200F4
:100148008C1008000130FB02031022008C1C0314E1
:10015800031CB12822008C14080022008C1008000F
:1001680030302000980099010B309700DC30960061
:100178001708F6001608F500111021001114663052
:10018800F1000130F200462160210800F4007408F3
:10019800F300F30DF30D21001D0873068339730670
:1001A8009D001D1421009D149D18D8281C08F200DC
:1001B8001B08F100080021001508C0391738950000
:1001C8008630200095008630F3007308F7000B1185
:1001D8008B160030F1000030F2004C2108007B3013
:1001E80020009C0079309B009A0191102100911405
:1001F8000030F1000030F20040215D2108002200AB
:100208008C011C3021008C00143023008C0010302D
:1002180024008C002100951322009D010800200075
:10022800111076089700750896002408250403190C
:10023800080025088A0024080A00813108000130D6
:1002480021009D00E0309E0040309F009B019C01F2
:1002580011170800200091107C03031D0800FF30CF
:10026800F907FF30FA3D08000321562152212321C6
:10027800F320B420DF20080072082000A1007108D4
:10028800A000080072082000A5007108A40008005A
:1002980072082000A3007108A2000800163021008F
:1002A8009700080038302100990008000F34003406
:1002B800783420001C1508002000181408002000BD
:0602C800111308000800FC
:020000040001F9
:04000E00A4FFFFDF6D
:00000001FF
