:020000003028A6
:100008007E14803120007F08F0008B1A0B1D0E280B
:100018009A202B280B1F18282100111F18282000B0
:10002800111F182861212B280B1F22282100911C41
:1000380022282000911C22282D212B280B1F2B2839
:100048002100111C2B282000111C2B2812217008BC
:100058002000FF007E10090031285821F80059219E
:10006800F9005A21FA00FB017E1020003B283621B6
:1000780022008C100C108C120A302000A7002708D0
:10008800A60001302000A602260A031955280930C7
:10009800A8001C30A700A70B4F28A80B4F2800006A
:1000A80045280230C92001307202E5300319710277
:1000B8000318622822000C1463009928FB01200011
:1000C8008C1D6B287A08031D632863006328093098
:1000D800A8001C30A700A70B6F28A80B6F280000EA
:1000E80020008C1962288B12FB01FB0A7908803AE0
:1000F8002000A70080302702031D842801307802E1
:10010800031C8A2822008C148C167A2822008C1052
:100118008C120230C92001307202E53003197102D5
:100128000318982822000C14630030280B11770854
:10013800200095007A08031DA528FA0122008C10DA
:1001480008000130FA02031022008C1C0314031C5F
:10015800B02822008C14080022008C1008003030CF
:100168002000980099010B309700DC3096001708A2
:10017800F6001608F5001110210011146430F10082
:100188000130F20044215E210800F4007408F300F5
:10019800F30DF30D21001D087306833973069D00C6
:1001A8001D1421009D149D18D7281C08F2001B0857
:1001B800F100080021001508C0391738950086306D
:1001C800200095008630F3007308F7000B118B169A
:1001D8000030F1000030F2004A2108007B30200096
:1001E8009C0079309B009A019110210091140030F5
:1001F800F1000030F2003E215B21080022008C0152
:100208001C3021008C00143023008C001030240096
:100218008C002100951322009D0108002000111078
:100228007608970075089600220823040319080029
:1002380023088A0022080A008131080001302100C1
:100248009D00E0309E0040309F009B019C011117EB
:10025800080020009110FB01FB0AFF30F807FF306F
:10026800F93D08000221542150212221F220B32017
:10027800DE20080072082000A5007108A40008000C
:1002880072082000A3007108A2000800720820006C
:10029800A1007108A000080016302100970008008E
:1002A8003830210099000800863401347834200061
:1002B8001C1508002000181408002000111308005D
:0202C80008002C
:020000040001F9
:04000E00A4FFFFDF6D
:00000001FF
